:020000040800F2
:1000000000200020393B0008C53A0008CB3A000820
:1000100000000000000000000000000000000000E0
:10002000000000000000000000000000D13A0008BD
:100030000000000000000000DB3A0008E53A00087C
:10004000893B000800000000893B0008893B00084C
:10005000893B0008893B0008893B0008893B000870
:1000600000000000F93A0008893B0008893B0008BD
:10007000893B0008893B0008893B0008000000001C
:10008000893B0008893B000800000000893B00080C
:10009000893B0008893B0008893B0008893B000830
:1000A000893B0008893B0008893B0008113B000898
:1000B0001F3B0008000000000000000000000000DE
:1000C00010B5064C2378002B07D1054B002B02D02E
:1000D000044800E000BF0123237010BD1000002081
:1000E00000000000E43B0008044B10B5002B03D0D7
:1000F0000349044800E000BF10BDC04600000000F6
:1001000014000020E43B0008002243088B4274D313
:1001100003098B425FD3030A8B4244D3030B8B4208
:1001200028D3030C8B420DD3FF22090212BA030C11
:100130008B4202D31212090265D0030B8B4219D3F2
:1001400000E0090AC30B8B4201D3CB03C01A524112
:10015000830B8B4201D38B03C01A5241430B8B425A
:1001600001D34B03C01A5241030B8B4201D30B0343
:10017000C01A5241C30A8B4201D3CB02C01A52416A
:10018000830A8B4201D38B02C01A5241430A8B422D
:1001900001D34B02C01A5241030A8B4201D30B0216
:1001A000C01A5241CDD2C3098B4201D3CB01C01A30
:1001B000524183098B4201D38B01C01A524143093A
:1001C0008B4201D34B01C01A524103098B4201D328
:1001D0000B01C01A5241C3088B4201D3CB00C01A95
:1001E000524183088B4201D38B00C01A524143080D
:1001F0008B4201D34B00C01A5241411A00D2014632
:10020000524110467047FFE701B5002000F006F8A4
:1002100002BDC0460029F7D076E770477047C04658
:1002200080B500AF074B1A68064B10210A431A60CD
:10023000032000F009F803F0D9FA00231800BD46A6
:1002400080BDC0460020024090B583B000AF78600A
:10025000144B1C68144B1B781900FA239800FFF705
:1002600053FF030019002000FFF74EFF03001800A2
:1002700000F0B9FD031E01D001230FE07B68032BC2
:100280000BD8796801235B420022180000F086FD3C
:10029000064B7A681A60002300E001231800BD466F
:1002A00003B090BD0C0000200400002000000020DE
:1002B00080B500AF054B1B781A00054B1B68D218A0
:1002C000034B1A60C046BD4680BDC04604000020F6
:1002D0002C00002080B500AF024B1B681800BD4603
:1002E00080BDC0462C00002080B584B000AF78608F
:1002F000FFF7F0FF0300BB607B68FB60FB68013326
:1003000005D00A4B1B781A00FB689B18FB60C0469F
:10031000FFF7E0FF0200BB68D31AFA689A42F7D8E9
:10032000C046C046BD4604B080BDC04604000020A3
:1003300080B584B000AF78600F23FB1800221A70DC
:100340000023BB607B68002B01D1012325E17B6882
:100350009B6B002B0AD17B680022DA637B68342216
:10036000002199547B68180003F064FA7B689B6B4A
:100370001022134000D003E10F23FB181B78002B41
:1003800000D0FDE07B681B689B680422134000D00E
:10039000F6E07B689B6B834A134002221A437B681A
:1003A0009A637B681B689B6803221340012B12D160
:1003B0007B681B681B6801221340012B09D07B68F6
:1003C0001B68DA6880231B021A4080231B029A42B2
:1003D00001D1012300E00023002B16D17B681B68AC
:1003E000DB681822934319007B689A687B681B6856
:1003F0000A43DA607B681B681B699B0099087B686D
:100400005A687B681B680A431A617B681B68DA6854
:100410007B681B6864490A40DA607B681B7E9A032C
:100420007B685B7EDB031A437B689B7E5B031A431E
:100430007B689B6A012B02D080235B0100E00023D4
:100440001A437B68DB681A437B681B69022B01D166
:10045000042300E000231A437B6824215B5C5B00DB
:100460001343BA681343BB607B68DB7E012B15D155
:100470007B689B7E002B05D1BB6880225202134310
:10048000BB600BE07B689B6B20221A437B689A63FE
:100490007B68DB6B01221A437B68DA637B68DA696D
:1004A000C223FF339A4207D07B68DA697B681B6AF4
:1004B0001343BA681343BB607B681B68D9687B68C9
:1004C0001B68BA680A43DA607B68DA6A80235B05D6
:1004D0009A421BD07B68DB6A012B17D07B68DB6AF2
:1004E000022B13D07B68DB6A032B0FD07B68DB6A9F
:1004F000042B0BD07B68DB6A052B07D07B68DB6A9B
:10050000062B03D07B68DB6A072B12D17B681B6844
:100510005A697B681B6807218A435A617B681B689C
:1005200059697B68DB6A07221A407B681B680A43AB
:100530005A617B681B68DB681C4A1340BA689A42A0
:100540000BD17B680022DA637B689B6B03229343A9
:1005500001221A437B689A631CE07B689B6B122222
:10056000934310221A437B689A637B68DB6B0122FA
:100570001A437B68DA630F23FB1801221A7009E023
:100580007B689B6B10221A437B689A630F23FB18CE
:1005900001221A700F23FB181B781800BD4604B007
:1005A00080BDC046FDFEFFFF1902FEFFE7FF3F834F
:1005B00090B587B000AFF860B9607A601723FB1878
:1005C00000221A70FB681B689B68042213405ED1EE
:1005D000FB6834229B5C012B01D102235EE0FB68A7
:1005E000342201219954FB685B7E012B07D017232D
:1005F000FC18FB68180000F075F90300237017233E
:10060000FB181B78002B46D1FB689B6B254A1340D7
:10061000802252001A43FB689A63FB680022DA6367
:10062000FB68342200219954FB681B6B1E4A9A62B6
:10063000FB681B6B1D4ADA62FB681B6B1C4A1A6362
:10064000FB681B681C221A60FB681B685A68FB6801
:100650001B6810210A435A60FB681B68DA68FB6854
:100660001B6801210A43DA60FB68186BFB681B6892
:1006700040331900BA687B6800F00AFCFB681B680D
:100680009A68FB681B6804210A439A6003E01723F9
:10069000FB1802221A701723FB181B781800BD469E
:1006A00007B090BDFEF0FFFFED090008A10A0008A9
:1006B000BF0A000880B582B000AF7860C046BD4672
:1006C00002B080BD80B582B000AF7860C046BD4644
:1006D00002B080BD80B582B000AF7860C046BD4634
:1006E00002B080BD80B584B000AF786039600F2360
:1006F000FB1800221A700023BB607B68DA6A802333
:100700005B059A4211D07B68DB6A012B0DD07B68B8
:10071000DB6A022B09D07B68DB6A032B05D07B6880
:10072000DB6A042B01D07B68DB6A7B6834229B5C2C
:10073000012B01D10223BBE07B68342201219954B3
:100740007B681B689B680422134000D09FE03B68D5
:100750005B68594A934200D177E07B681B68996ACD
:100760003B681B6801229A407B681B680A439A62B7
:100770007B68DA6A80235B059A4237D07B68DB6A44
:10078000012B33D07B68DB6A022B2FD07B68DB6ABE
:10079000032B2BD07B68DB6A042B27D07B68DB6ABA
:1007A000052B23D07B68DB6A062B1FD07B68DB6AB6
:1007B000072B1BD03B689A687B681B685B69072125
:1007C0000B409A4212D07B681B685A697B681B6891
:1007D00007218A435A617B681B6859693B689B689B
:1007E00007221A407B681B680A435A613B681B68F2
:1007F000102B03D03B681B68112B52D12F4B19686B
:100800003B681B68102B02D180231B0401E080236E
:10081000DB032A4A0B4313603B681B68102B40D153
:10082000274B1B6827491800FFF76EFC03001A00CE
:1008300013009B009B185B00BB6002E0BB68013BA0
:10084000BB60BB68002BF9D12BE07B681B689A6A00
:100850003B681B68012199400B00D9437B681B68EA
:100860000A409A623B681B68102B03D03B681B68E8
:10087000112B16D1114B19683B681B68102B01D145
:10088000114A00E0114A0D4B0A401A6009E07B68EA
:100890009B6B20221A437B689A630F23FB1801226B
:1008A0001A707B683422002199540F23FB181B789F
:1008B0001800BD4604B080BD0110000008270140AB
:1008C0000C00002040420F00FFFF7FFFFFFFBFFF33
:1008D00080B582B000AF78607B689B6B1800BD4626
:1008E00002B080BD80B584B000AF78600023FB60AB
:1008F0000023BB607B681B689B6803221340012BAD
:1009000012D17B681B681B6801221340012B09D0A0
:100910007B681B68DA6880231B021A4080231B0255
:100920009A4201D1012300E00023002B52D17B68C1
:100930001B689B682A4A13400DD07B689B6B102272
:100940001A437B689A637B68DB6B01221A437B68DE
:10095000DA6301233FE07B681B689A687B681B6849
:1009600001210A439A601F4B1B681F491800FFF7BB
:10097000CBFB0300BB6002E0BB68013BBB60BB6814
:10098000002BF9D1FFF7A6FC0300FB601BE0FFF78B
:10099000A1FC0200FB68D31A022B14D97B681B68E8
:1009A0001B6801221340012B0DD07B689B6B10222A
:1009B0001A437B689A637B68DB6B01221A437B686E
:1009C000DA63012307E07B681B681B680122134080
:1009D000012BDCD100231800BD4604B080BDC04609
:1009E000170000800C00002040420F0080B584B04A
:1009F00000AF78607B685B6AFB60FB689B6B502292
:100A0000134040D1FB689B6B802292001A43FB6825
:100A10009A63FB681B68DA68C0231B0113402DD161
:100A2000FB689B7E002B29D1FB681B681B68082292
:100A30001340082B22D1FB681B689B6804221340DB
:100A400010D1FB681B685A68FB681B680C218A433D
:100A50005A60FB689B6B114A134001221A43FB68E2
:100A60009A630BE0FB689B6B20221A43FB689A6336
:100A7000FB68DB6B01221A43FB68DA63FB68180032
:100A8000FFF718FE05E0FB681B6B1B6B7A68100014
:100A90009847C046BD4604B080BDC046FEFEFFFF7D
:100AA00080B584B000AF78607B685B6AFB60FB68F0
:100AB0001800FFF707FEC046BD4604B080BD80B5F4
:100AC00084B000AF78607B685B6AFB60FB689B6BFF
:100AD00040221A43FB689A63FB68DB6B04221A43CB
:100AE000FB68DA63FB681800FFF7F4FDC046BD46FB
:100AF00004B080BD80B586B000AF78601723FB18C6
:100B000000221A7000233B610023FB607B683422C3
:100B10009B5C012B01D102238DE07B6834220121F3
:100B200099547B681B689B6803221340012B12D1E8
:100B30007B681B681B6801221340012B09D07B686E
:100B40001B68DA6880231B021A4080231B029A422A
:100B500001D1012300E00023002B5BD17B689B6B5C
:100B6000374A134002221A437B689A637B681B68EA
:100B7000DB6803221340FB607B681B68DA687B68D4
:100B80001B6803218A43DA607B681B689A687B686C
:100B90001B68802109060A439A60FFF79BFB03004C
:100BA0003B611DE0FFF796FB02003B69D31A022B65
:100BB00016D97B681B689B68DB0FDA0780231B064E
:100BC0009A420DD17B689B6B1222934310221A43E9
:100BD0007B689A637B6834220021995401232AE0C0
:100BE0007B681B689B68DB0FDA0780231B069A4231
:100BF000D8D07B681B68D9687B681B68FA680A4391
:100C0000DA607B689B6B0322934301221A437B6863
:100C10009A6309E07B689B6B20221A437B689A6386
:100C20001723FB1801221A707B6834220021995483
:100C30001723FB181B781800BD4606B080BDC046C0
:100C4000FDFEFFFF80B582B000AF0200FB1D1A70F1
:100C5000FB1D1B787F2B09D8FB1D1B781A001F2357
:100C60001A40044B012191400A001A60C046BD465B
:100C700002B080BD00E100E090B583B000AF02009B
:100C80003960FB1D1A70FB1D1B787F2B28D82F4A5B
:100C9000FB1D1B785BB29B08C0339B009B58FA1D61
:100CA0001278110003220A40D200FF2191400A006D
:100CB000D2431A4011003B689B01FF221A40FB1DE2
:100CC0001B78180003230340DB009A401F48FB1DDC
:100CD0001B785BB29B080A43C0339B001A5031E07B
:100CE0001B4AFB1D1B7819000F230B40083B9B0878
:100CF00006339B00D31804331B68FA1D12781100C9
:100D000003220A40D200FF2191400A00D2431A4038
:100D100011003B689B01FF221A40FB1D1B78180045
:100D200003230340DB009A400948FB1D1B781C008D
:100D30000F232340083B9B080A4306339B00C3183C
:100D400004331A60C046BD4603B090BD00E100E028
:100D500000ED00E080B582B000AF78607B685A1E7D
:100D600080235B049A4201D3012310E00A4B7A6886
:100D7000013A5A6001235B4203211800FFF77CFF10
:100D8000054B00229A60044B07221A6000231800CA
:100D9000BD4602B080BDC04610E000E080B584B022
:100DA00000AFB9607A600F217B18021C1A70BA6814
:100DB0007B181B785BB211001800FFF75DFFC0467F
:100DC000BD4604B080BD80B582B000AF0200FB1DFF
:100DD0001A70FB1D1B785BB21800FFF733FFC0468B
:100DE000BD4602B080BD80B582B000AF78607B6840
:100DF0001800FFF7AFFF03001800BD4602B080BD2A
:100E000080B584B000AF78600023FB607B68002B66
:100E100001D1012336E07B682122022199547B68AD
:100E20001B681B68FB60FB68184A1340FB607B680B
:100E30005A687B689B681A437B68DB681A437B6847
:100E40001B691A437B685B691A437B689B691A4379
:100E50007B68DB691343FA681343FB607B681B689C
:100E6000FA681A607B68180000F046F97B68002277
:100E70009A637B682122012199547B6820220021FA
:100E8000995400231800BD4604B080BD0FC0FFFF79
:100E900080B586B000AFF860B9607A603B60172318
:100EA000FB1800221A70FB6820229B5C012B01D1E9
:100EB00002234FE0FB68202201219954FB68212284
:100EC0009B5CDBB2012B3AD1FB68212202219954B1
:100ED000FB6800229A63FB681B681A68FB681B6842
:100EE00001218A431A603B687A68B968F86800F0A3
:100EF000D7F8FB68DB6A002B08D0FB681B681A6810
:100F0000FB681B680E210A431A600FE0FB681B6830
:100F10001A68FB681B680A210A431A60FB681B6891
:100F20001A68FB681B6804218A431A60FB681B6807
:100F30001A68FB681B6801210A431A6007E0FB6816
:100F40002022002199541723FB1802221A7017231C
:100F5000FB181B781800BD4606B080BD80B584B074
:100F600000AF78607B68DB6B1B68FB607B681B688D
:100F70001B68BB607B681B6C04229A401300FA68F4
:100F8000134024D0BB680422134020D07B681B6828
:100F90001B682022134007D17B681B681A687B6896
:100FA0001B6804218A431A607B681A6C7B68DB6BC0
:100FB000042191400A005A607B68DB6A002B00D153
:100FC0006AE07B68DB6A7A681000984764E07B68B7
:100FD0001B6C02229A401300FA6813402BD0BB68A6
:100FE0000222134027D07B681B681B682022134015
:100FF0000BD17B681B681A687B681B680A218A43CF
:101000001A607B682122012199547B681A6C7B68E5
:10101000DB6B022191400A005A607B68202200218C
:1010200099547B689B6A002B36D07B689B6A7A68F0
:101030001000984730E07B681B6C08229A40130030
:10104000FA68134028D0BB680822134024D07B687C
:101050001B681A687B681B680E218A431A607B68CC
:101060001A6C7B68DB6B012191400A005A607B6837
:1010700001229A637B682122012199547B682022F6
:10108000002199547B681B6B002B05D07B681B6B80
:101090007A6810009847FFE7C046BD4604B080BD9F
:1010A00080B584B000AFF860B9607A603B60FB68DF
:1010B0001A6CFB68DB6B012191400A005A60FB68E7
:1010C0001B683A685A60FB685B68102B08D1FB68A4
:1010D0001B687A689A60FB681B68BA68DA6007E088
:1010E000FB681B68BA689A60FB681B687A68DA60FC
:1010F000C046BD4604B080BD80B582B000AF786008
:101100007B681B68084A9446634414211800FEF764
:10111000FBFF03009A007B681A647B68034ADA636A
:10112000C046BD4602B080BDF8FFFDBF00000240D2
:1011300080B586B000AF7860396000237B614FE1F5
:101140003B681B6801217A6991400A001340FB60EB
:10115000FB68002B00D140E13B685B680322134031
:10116000012B05D03B685B6803221340022B30D172
:101170007B689B683B617B695B0003229A4013009C
:10118000DA433B6913403B613B68DA687B695B008B
:101190009A4013003A6913433B617B683A699A604D
:1011A0007B685B683B6101227B699A401300DA43EC
:1011B0003B6913403B613B685B681B0901221A4095
:1011C0007B699A4013003A6913433B617B683A6933
:1011D0005A603B685B6803221340032B17D07B687F
:1011E000DB683B617B695B0003229A401300DA43B2
:1011F0003B6913403B613B689A687B695B009A409E
:1012000013003A6913433B617B683A69DA603B68D3
:101210005B6803221340022B23D17B69DA087B68C9
:1012200008329200D3583B617B69072213409B0030
:101230000F229A401300DA433B6913403B613B683D
:101240001A697B6907210B409B009A4013003A6999
:1012500013433B617B69DA087B6808329200396985
:10126000D1507B681B683B617B695B0003229A401D
:101270001300DA433B6913403B613B685B68032220
:101280001A407B695B009A4013003A6913433B6143
:101290007B683A691A603B685A68C0239B02134016
:1012A00000D19AE0544B9A69534B01210A439A6149
:1012B000514B9B6901221340BB60BB684F4A7B695D
:1012C0009B0802339B009B583B617B6903221340C0
:1012D0009B000F229A401300DA433B6913403B61A5
:1012E0007A689023DB059A4213D07B68444A934284
:1012F0000DD07B68434A934207D07B68424A9342B1
:1013000001D1032306E0052304E0022302E00123C8
:1013100000E000237A6903210A40920093403A6971
:1013200013433B6135497B699B0802339B003A6953
:101330005A50364B9B683B61FB68DA433B6913406C
:101340003B613B685A6880235B03134003D03A69D2
:10135000FB6813433B612D4B3A699A602B4BDB686A
:101360003B61FB68DA433B6913403B613B685A6869
:1013700080239B03134003D03A69FB6813433B610E
:10138000224B3A69DA60214B5B683B61FB68DA43C8
:101390003B6913403B613B685A6880239B021340C2
:1013A00003D03A69FB6813433B61184B3A695A60B2
:1013B000164B1B683B61FB68DA433B6913403B619A
:1013C0003B685A6880235B02134003D03A69FB688C
:1013D00013433B610D4B3A691A607B6901337B61B2
:1013E0003B681A687B69DA40131E00D0A8E6C04645
:1013F000C046BD4606B080BD00100240000001405E
:101400000004004800080048000C004800040140A7
:1014100080B584B000AF78600A00BB1C1A807B687E
:101420001B69BA1C1288134004D00F23FB18012239
:101430001A7003E00F23FB1800221A700F23FB1809
:101440001B781800BD4604B080BD80B582B000AFE7
:10145000786008001100BB1C021C1A807B1C0A1C4F
:101460001A707B1C1B78002B04D0BB1C1A887B686D
:101470009A6103E0BB1C1A887B689A62C046BD462D
:1014800002B080BD80B588B000AF78607B68002B6B
:1014900001D1012301E37B681B680122134000D1C5
:1014A0008DE0C34B5B680C221340042B0ED0C04B65
:1014B0005B680C221340082B16D1BD4B5A68802361
:1014C0005B021A4080235B029A420DD1B84B1A6826
:1014D00080239B02134000D170E07B685B68002B87
:1014E00000D06BE00123D8E27B685B68012B07D159
:1014F000AF4B1A68AE4B802149020A431A602FE0B5
:101500007B685B68002B0CD1A94B1A68A84BA949D2
:101510000A401A60A64B1A68A54BA7490A401A60F0
:101520001EE07B685B68052B0ED1A14B1A68A04BAF
:101530008021C9020A431A609D4B1A689C4B802186
:1015400049020A431A600BE0994B1A68984B994973
:101550000A401A60964B1A68954B97490A401A60E0
:101560007B685B68002B14D0FEF7B4FE0300BB6100
:1015700008E0FEF7AFFE0200BB69D31A642B01D965
:1015800003238AE28A4B1A6880239B021340F0D01F
:1015900015E0FEF79FFE0300BB6108E0FEF79AFE30
:1015A0000200BB69D31A642B01D9032375E2804B77
:1015B0001A6880239B021340F0D100E0C0467B688C
:1015C0001B680222134000D169E0794B5B680C2252
:1015D00013400BD0764B5B680C221340082B1CD1B8
:1015E000734B5A6880235B02134016D1704B1B6803
:1015F0000222134005D07B68DB68012B01D0012358
:101600004BE26B4B1B68F822934319007B681B6904
:10161000DA00674B0A431A6041E07B68DB68002B05
:1016200024D0634B1A68624B01210A431A60FEF70B
:1016300051FE0300BB6108E0FEF74CFE0200BB69EF
:10164000D31A022B01D9032327E2594B1B6802222C
:101650001340F1D0564B1B68F822934319007B6866
:101660001B69DA00524B0A431A6018E0504B1A68A3
:101670004F4B01218A431A60FEF72CFE0300BB6129
:1016800008E0FEF727FE0200BB69D31A022B01D93E
:10169000032302E2464B1B6802221340F1D17B6810
:1016A0001B680822134036D07B68DB69002B19D0F9
:1016B0003F4B5A6A3E4B01210A435A62FEF70AFE2B
:1016C0000300BB6108E0FEF705FE0200BB69D31A08
:1016D000022B01D90323E0E1354B5B6A0222134060
:1016E000F1D018E0324B5A6A314B01218A435A62D9
:1016F000FEF7F0FD0300BB6108E0FEF7EBFD020022
:10170000BB69D31A022B01D90323C6E1284B5B6ABC
:1017100002221340F1D17B681B680422134000D1E0
:10172000B4E01F203B1800221A70214BDA69802395
:101730005B05134010D11E4BDA691D4B8021490512
:101740000A43DA611A4BDA6980235B051340FB60B8
:10175000FB683B1801221A70184B1A6880235B0043
:1017600013401AD1154B1A68144B802149000A43C3
:101770001A60FEF7AFFD0300BB6108E0FEF7AAFDAB
:101780000200BB69D31A642B01D9032385E10B4BFB
:101790001A6880235B001340F0D07B689B68012BA4
:1017A0000ED1034B1A6A024B01210A431A6235E03B
:1017B00000100240FFFFFEFFFFFFFBFF0070004034
:1017C0007B689B68002B0CD1B64B1A6AB54B012184
:1017D0008A431A62B34B1A6AB24B04218A431A62D3
:1017E0001CE07B689B68052B0CD1AE4B1A6AAD4B95
:1017F00004210A431A62AB4B1A6AAA4B01210A431D
:101800001A620BE0A74B1A6AA64B01218A431A629F
:10181000A44B1A6AA34B04218A431A627B689B6813
:10182000002B14D0FEF756FD0300BB6109E0FEF764
:1018300051FD0200BB69D31A9B4A934201D903238D
:101840002BE1984B1B6A02221340F0D013E0FEF705
:1018500041FD0300BB6109E0FEF73CFD0200BB69EE
:10186000D31A914A934201D9032316E18D4B1B6A87
:1018700002221340F0D11F23FB181B78012B05D146
:10188000884BDA69874B89490A40DA617B681B68B3
:101890001022134063D07B685B69012B2AD1814BF6
:1018A0005A6B804B04210A435A637E4B5A6B7D4B23
:1018B00001210A435A63FEF70DFD0300BB6108E0F6
:1018C000FEF708FD0200BB69D31A022B01D90323DE
:1018D000E3E0744B5B6B02221340F1D0714B5B6B06
:1018E000F822934319007B689B69DA006D4B0A4329
:1018F0005A6334E07B685B69053311D1694B5A6BDD
:10190000684B04218A435A63664B5B6BF82293430E
:1019100019007B689B69DA00624B0A435A631EE038
:10192000604B5A6B5F4B04210A435A635D4B5A6B01
:101930005C4B01218A435A63FEF7CCFC0300BB6178
:1019400008E0FEF7C7FC0200BB69D31A022B01D9DD
:101950000323A2E0534B5B6B02221340F1D17B685F
:101960001B6A002B00D197E04E4B5B680C221340A2
:10197000082B00D16BE07B681B6A022B4CD1494BD2
:101980001A68484B4A490A401A60FEF7A3FC030054
:10199000BB6108E0FEF79EFC0200BB69D31A022B74
:1019A00001D9032379E03F4B1A6880239B0413403D
:1019B000F0D13C4BDB6A0F22934319007B68DA6A53
:1019C000384B0A43DA62374B5B683A4A13401900D6
:1019D0007B689A6A7B685B6A1A43324B0A435A6097
:1019E000304B1A682F4B802149040A431A60FEF7D6
:1019F00071FC0300BB6108E0FEF76CFC0200BB69F0
:101A0000D31A022B01D9032347E0264B1A688023FF
:101A10009B041340F0D03FE0224B1A68214B24492D
:101A20000A401A60FEF756FC0300BB6108E0FEF7AF
:101A300051FC0200BB69D31A022B01D903232CE00D
:101A4000184B1A6880239B041340F0D124E07B6874
:101A50001B6A012B01D101231FE0124B5B687B61E4
:101A6000104BDB6A3B617A6980235B021A407B681A
:101A70005B6A9A420ED13B690F221A407B68DB6A8F
:101A80009A4207D17A69F0239B031A407B689B6ACC
:101A90009A4201D0012300E000231800BD4608B09F
:101AA00080BDC0460010024088130000FFFFFFEF1A
:101AB000FFFFFFFEFFFFC2FF80B584B000AF78607C
:101AC00039607B68002B01D10123B3E05B4B1B68BD
:101AD000012213403A689A4211D9584B1B680122DF
:101AE00093431900554B3A680A431A60534B1B68DD
:101AF000012213403A689A4201D001239AE07B68A0
:101B00001B680222134015D07B681B680422134017
:101B100006D04B4B5A684A4BE021C9000A435A6031
:101B2000474B5B68F022934319007B689A68444BEB
:101B30000A435A607B681B680122134040D07B68CF
:101B40005B68012B07D13E4B1A6880239B02134030
:101B500014D101236EE07B685B68022B07D1384B00
:101B60001A6880239B04134008D1012362E0344BA0
:101B70001B680222134001D101235BE0304B5B68FC
:101B80000322934319007B685A682D4B0A435A601D
:101B9000FEF7A0FB0300FB6009E0FEF79BFB0200E1
:101BA000FB68D31A274A934201D9032342E0244B0E
:101BB0005B680C221A407B685B689B009A42ECD100
:101BC0001E4B1B68012213403A689A4211D21B4BEC
:101BD0001B68012293431900184B3A680A431A60A4
:101BE000164B1B68012213403A689A4201D0012328
:101BF00020E07B681B680422134009D0104B5B680F
:101C0000114A134019007B68DA680D4B0A435A6089
:101C100000F020F801000A4B5B681B090F221340FB
:101C20000A4AD35C0A00DA40094B1A600320FEF727
:101C30000BFB00231800BD4604B080BD002002400D
:101C40000010024088130000FFF8FFFF1C3E000850
:101C50000C00002080B586B000AF0023FB6000239D
:101C6000BB6000237B6100237B6000233B61204B32
:101C70005B68FB60FB680C221340042B02D0082B2E
:101C800003D02CE01B4B3B612CE0FB689B0C0F222C
:101C90001340194AD35C7B60154BDB6A0F2213405B
:101CA000164AD35CBB60FA6880235B02134009D0FC
:101CB000B9681048FEF728FA03001A007B685343FE
:101CC0007B6109E079680A005201521A93019B1A5C
:101CD000DB005B181B027B617B693B6102E0054B0B
:101CE0003B61C0463B691800BD4606B080BDC0469A
:101CF0000010024000127A00FC3B00080C3C000877
:101D000080B500AF024B1B681800BD4680BDC046C1
:101D10000C00002080B500AFFFF7F2FF0100064B7A
:101D20005B681B0A07221340044AD35CD9400B00AE
:101D30001800BD4680BDC046001002402C3E000881
:101D400080B586B000AF786000233B610023FB6064
:101D50007B681A6880235B02134000D18EE0172055
:101D60003B1800221A70574BDA6980235B05134039
:101D700010D1544BDA69534B802149050A43DA618B
:101D8000504BDA6980235B051340BB60BB683B188E
:101D900001221A704C4B1A6880235B0013401AD141
:101DA000494B1A68484B802149000A431A60FEF7E4
:101DB00091FA03003B6108E0FEF78CFA02003B69F0
:101DC000D31A642B01D9032377E03F4B1A68802391
:101DD0005B001340F0D03B4B1A6AC0239B001340BA
:101DE000FB60FB68002B34D07B685A68C0239B00E3
:101DF0001340FA689A422CD0324B1B6A334A134084
:101E0000FB60304B1A6A2F4B802149020A431A6249
:101E10002C4B1A6A2B4B2E490A401A62294BFA683E
:101E20001A62FB680122134013D0FEF753FA030035
:101E30003B6109E0FEF74EFA02003B69D31A254ADE
:101E4000934201D9032338E01E4B1B6A0222134040
:101E5000F0D01C4B1B6A1D4A134019007B685A685E
:101E6000184B0A431A621723FB181B78012B05D164
:101E7000144BDA69134B18490A40DA617B681B6816
:101E80000122134009D00F4B1B6B0322934319000F
:101E90007B689A680B4B0A431A637B681B68202295
:101EA000134009D0074B1B6B1022934319007B682A
:101EB000DA68044B0A431A6300231800BD4606B0D3
:101EC00080BDC0460010024000700040FFFCFFFFD4
:101ED000FFFFFEFF88130000FFFFFFEF80B588B013
:101EE00000AF78601E23FB1800221A707B689A6886
:101EF0007B681B691A437B685B691A437B68DB69F3
:101F000013437B617B681B681B688D4A1340190073
:101F10007B681B687A690A431A607B681B685B6888
:101F2000884A134019007B68DA687B681B680A439B
:101F30005A607B689B697B617B681B6A7A69134383
:101F40007B617B681B689B687F4A134019007B6834
:101F50001B687A690A439A607B681B687B4A9342D4
:101F600027D17B4B1B6B03221340032B0DD01BD8B7
:101F7000022B14D018D8002B02D0012B0AD013E06A
:101F80001F23FB1800221A7021E01F23FB180222D6
:101F90001A701CE01F23FB1804221A7017E01F237D
:101FA000FB1808221A7012E01F23FB1810221A7067
:101FB0000DE07B681B68674A934204D11F23FB181E
:101FC00000221A7003E01F23FB1810221A707B688E
:101FD000DA6980231B029A425CD11F23FB181B780D
:101FE000082B15D018DC042B0DD015DC002B02D0EB
:101FF000022B05D010E0FFF78DFE0300BB6112E05D
:10200000554BBB610FE0FFF725FE0300BB610AE003
:1020100080231B02BB6106E00023BB611E23FB186B
:1020200001221A70C046BB69002B00D17AE0BB695F
:102030005A007B685B685B08D2187B685B68190094
:102040001000FEF761F803003B613B690F2B1CD9C0
:102050003A6980235B029A4217D23B699AB20E20FA
:102060003B180F218A431A803B695B089BB2072209
:10207000134099B23B183A1812880A431A807B68B9
:102080001B683A181288DA604CE01E23FB18012204
:102090001A7047E01F23FB181B78082B15D018DC9B
:1020A000042B0DD015DC002B02D0022B05D010E044
:1020B000FFF730FE0300BB6112E0274BBB610FE06E
:1020C000FFF7C8FD0300BB610AE080231B02BB6170
:1020D00006E00023BB611E23FB1801221A70C046D4
:1020E000BB69002B1ED07B685B685A08BB69D2189D
:1020F0007B685B6819001000FEF706F803003B617F
:102100003B690F2B0AD93A6980235B029A4205D2B8
:102110003B699AB27B681B68DA6003E01E23FB18F8
:1021200001221A707B6800229A667B680022DA66B8
:102130001E23FB181B781800BD4608B080BDC046A2
:10214000F369FFFFFFCFFFFFFFF4FFFF00380140FF
:10215000001002400044004000127A0080B582B0B6
:1021600000AF78607B685B6A012213400BD07B680C
:102170001B685B684A4A134019007B689A6A7B684F
:102180001B680A435A607B685B6A022213400BD0CB
:102190007B681B685B68434A134019007B68DA6AF6
:1021A0007B681B680A435A607B685B6A04221340A1
:1021B0000BD07B681B685B683B4A134019007B6847
:1021C0001A6B7B681B680A435A607B685B6A08224B
:1021D00013400BD07B681B685B68344A13401900BE
:1021E0007B685A6B7B681B680A435A607B685B6A32
:1021F000102213400BD07B681B689B682C4A13404D
:1022000019007B689A6B7B681B680A439A607B683D
:102210005B6A202213400BD07B681B689B68254AB1
:10222000134019007B68DA6B7B681B680A439A606D
:102230007B685B6A402213401DD07B681B685B682B
:102240001D4A134019007B681A6C7B681B680A439F
:102250005A607B681A6C80235B039A420BD17B68BF
:102260001B685B68154A134019007B685A6C7B68D1
:102270001B680A435A607B685B6A802213400BD05C
:102280007B681B685B680E4A134019007B689A6C78
:102290007B681B680A435A60C046BD4602B080BDD9
:1022A000FFFFFDFFFFFFFEFFFFFFFBFFFF7FFFFFC5
:1022B000FFEFFFFFFFDFFFFFFFFFEFFFFFFF9FFFCE
:1022C000FFFFF7FF80B592B002AF78607B68842291
:1022D00000219950FDF7FEFF0300FB637B681B683C
:1022E0001B6808221340082B2CD1FB6B8022910322
:1022F0007868464A0092002200F08CF8031E21D034
:10230000EFF310837B627B6ABB630123BB62BB6A12
:1023100083F31088C0467B681B681A687B681B685B
:1023200080218A431A60BB6BFB62FB6A83F31088CF
:10233000C0467B682022DA677B68782200219954A6
:1023400003235FE07B681B681B6804221340042B97
:1023500046D1FB6B8022D10378682C4A0092002280
:1023600000F058F8031E3BD0EFF31083FB60FB68CE
:102370007B6301233B613B6983F31088C0467B6824
:102380001B681A687B681B6821490A401A607B6BCE
:102390007B617B6983F31088C046EFF31083BB61D8
:1023A000BB693B630123FB61FB6983F31088C04673
:1023B0007B681B689A687B681B6801218A439A6066
:1023C0003B6B3B623B6A83F31088C0467B6880228C
:1023D000202199507B68782200219954032311E031
:1023E0007B682022DA677B688022202199507B68F5
:1023F00000221A667B6800225A667B6878220021D8
:10240000995400231800BD4610B080BDFFFFFF01A6
:10241000DFFEFFFF80B584B000AFF860B9603B60BD
:10242000FB1D1A704BE0BB69013348D0FDF752FF2A
:1024300002003B68D31ABA699A4202D3BB69002BE7
:1024400001D103234BE0FB681B681B680422134087
:1024500035D0FB681B68DB6908221340082B11D1BB
:10246000FB681B6808221A62FB68180000F03CF841
:10247000FB68842208219950FB6878220021995436
:1024800001232CE0FB681B68DA6980231B011A40DA
:1024900080231B019A4212D1FB681B688022120123
:1024A0001A62FB68180000F01FF8FB6884222021E4
:1024B0009950FB6878220021995403230FE0FB68B0
:1024C0001B68DB69BA681340BA68D31A5A42534191
:1024D000DBB21A00FB1D1B789A42A4D0002318001F
:1024E000BD4604B080BD000080B58EB000AF7860FE
:1024F000EFF310837B617B697B630123BB61BB6965
:1025000083F31088C0467B681B681A687B681B6869
:1025100026490A401A607B6BFB61FB6983F31088D4
:10252000C046EFF310833B623B6A3B6301237B624F
:102530007B6A83F31088C0467B681B689A687B6857
:102540001B6801218A439A603B6BBB62BB6A83F3C1
:102550001088C0467B681B6E012B18D1EFF31083E7
:10256000BB60BB68FB620123FB60FB6883F31088E0
:10257000C0467B681B681A687B681B6810218A4309
:102580001A60FB6A3B613B6983F31088C0467B6835
:102590008022202199507B6800221A667B680022E5
:1025A0009A66C046BD460EB080BDC046DFFEFFFF46
:1025B00080B586B000AFF860B9607A603B60FB68B8
:1025C000002B01D101235BE0FB68DB6F002B07D1FF
:1025D000FB68782200219954FB68180001F0DAF9B1
:1025E000FB682422DA67FB681B681A68FB681B68B3
:1025F00001218A431A60FB681800FFF76FFC030093
:10260000012B01D101233BE0FB685B6A002B03D067
:10261000FB681800FFF7A2FDFB681B689A68FB685F
:102620001B688021C9010A439A60FB681B689B688C
:10263000154A13401900FB681B68BA680A439A6080
:102640007B685B057B613B681B047A6913437B6194
:10265000FB681B681B680D4A13401900FB681B6868
:102660007A690A431A60FB681B681A68FB681B6872
:1026700001210A431A60FB681800FFF723FE0300DC
:102680001800BD4606B080BDFF7FFFFFFFFF00FCC6
:1026900080B584B000AF786039600A23FB1800224F
:1026A0001A800023FB601BE00A203B181B881B0AD2
:1026B0009BB219007B685A1C7A601B784B40FF2242
:1026C0001A400D4B5200D35A1AB23B181B881B02FA
:1026D0001BB253401AB23B181A80FB680133FB60EF
:1026E000FA683B689A42DFD30A23FB181B8818005C
:1026F000BD4604B080BDC0461C3C000890B585B006
:1027000000AF78600A00BB1C1A80204B1B780122A6
:102710005340DBB2002B01D000F03CF80C23FB1837
:10272000012252421A807B68BB60BB68002B25D017
:102730000E23FB1800221A8019E00C243B191B8879
:102740001B0A99B23B191A88BB68581CB8601B78E1
:102750005340FF221A400E4B5200D25A3B194A40B6
:102760001A800E217B181A887B1801321A800E23DA
:10277000FA18BB1C12881B889A42DED30C23FB1864
:102780001B881800BD4605B090BDC0463000002033
:102790003400002080B582B000AFBB1D00221A803B
:1027A0003CE0BB1C00221A803B00BA1D12881A8034
:1027B0003B1D00221A8021E0BA1C3B0012881B88B6
:1027C00053409BB21A000123134008D0BB1C1B8846
:1027D0005B089AB2BB1C17494A401A8004E0BB1C34
:1027E000BA1C128852081A803B003A00128852081C
:1027F0001A803B1D1A883B1D01321A803B1D1B8825
:10280000072BD9D9BB1D1A880B4B5200B91C09885C
:10281000D152BB1D1A88BB1D01321A80BB1D1B88FB
:10282000FF2BBED9054B01221A70C046BD4602B02F
:1028300080BDC04601A0FFFF340000203000002012
:1028400080B500AF234B1B780133DAB2214B1A70ED
:10285000214B1B685A1C204B1A601E4B1B78092BFE
:1028600008D91C4B00221A701C4B1B780133DAB2BA
:102870001A4B1A701A4B1B88002B0CD0184B1B8854
:10288000013B9AB2164B1A80154B1B88002B02D1C4
:10289000144B01221A70144B1B88002B0CD0124BC6
:1028A0001B88013B9AB2104B1A800F4B1B88002BE0
:1028B00002D10E4B01221A700D4B1B88002B05D044
:1028C0000B4B1B88013B9AB2094B1A80C046BD4690
:1028D00080BDC046340200203C02002035020020AA
:1028E000AA02002041020020B6060020AE0200200D
:1028F000D206002080B500AF1E4B1B78092B1AD9D9
:102900001C4B00221A701C4B1B780133DAB21A4B95
:102910001A701A4B1B780133DAB2184B1A70184B25
:102920001B780133DAB2164B1A70164B01221A705B
:10293000154B01221A70114B1B78032B02D10F4B40
:1029400000221A700E4B1B78052B02D10C4B002273
:102950001A70094B1B780A2B02D1074B00221A7000
:102960000A4B1B783B2B02D9084B00221A70C04639
:10297000BD4680BD3502002036020020370200200F
:1029800038020020AC020020AD02002039020020F5
:1029900080B586B000AF464BDB697B61444B1B685A
:1029A0003B61434B9B68FB607B69424A1340BB60C1
:1029B000BB68002B00D072E07B692022134021D03D
:1029C0003B69202213401DD0394B9B8C9AB2FB1DD2
:1029D0001A70394B1B7801225340DBB2002B11D007
:1029E000364B1B881F2B0DD8344B1B885A1C91B2B9
:1029F000324A11801900324BFA1D12785A54314B69
:102A00000A221A807B698022134031D03B698022E0
:102A100013402DD02C4B1A882C4B1B889A4218D06F
:102A2000294B1B881A002A4B9A5C214B92B21A85BB
:102A3000254B1B8801339AB2234B1A80224B1B88EB
:102A40001F2213409AB2204B1A80224B00221A7088
:102A50000EE0204B01221A70154B1A68144B80218E
:102A60008A431A60124B1A68114B40210A431A60BC
:102A70007B694022134016D03B694022134012D09C
:102A8000802359019023DB0500221800FEF7DDFCAE
:102A9000074B1A68064B40218A431A6003E00E4B2D
:102AA0001B680F221A62C046BD4606B080BDC046F4
:102AB000003801400F08000041020020A40200205D
:102AC00044020020AA020020A6020020A802002042
:102AD00064020020050000206407002090B583B048
:102AE00000AF7A4B1B78002B00D1ADE0774B002272
:102AF0001A70774BB1221A70764B1B889BB2DAB2F0
:102B0000734B5A70734B1B889BB21B0A9BB2DAB291
:102B10006F4B9A706F4B5B889BB2DAB26C4BDA707A
:102B20006C4B5B889BB21B0A9BB2DAB2684B1A7182
:102B3000684B9B889BB2DAB2654B5A71654B9B8898
:102B40009BB21B0A9BB2DAB2614B9A71614BDB8874
:102B50009BB2DAB25E4BDA715E4BDB889BB21B0A2A
:102B60009BB2DAB25A4B1A725A4B1B899BB2DAB239
:102B7000574B5A72574B1B899BB21B0A9BB2DAB256
:102B8000534B9A72534B5B899BB2DAB2504BDA7259
:102B9000504B5B899BB21B0A9BB2DAB24C4B1A7347
:102BA0004C4B9B899BB2DAB2494B5A73494B9B8978
:102BB0009BB21B0A9BB2DAB2454B9A73464BDA784A
:102BC000434BDA73444B1A79414B1A74424B5A798E
:102BD0003F4B5A74404B9A793D4B9A743E4BDA798D
:102BE0003B4BDA743C4B1A7A394B1A753B4B00223B
:102BF0009B5EDAB2364B5A753C1D354B16211800D8
:102C0000FFF746FD030023803B1D1B881B0A9BB278
:102C1000DAB22F4B9A753B1D1B88DAB22C4BDA7552
:102C2000FB1D00221A700BE0FB1D1B78284AD35CA9
:102C3000180000F063F8FB1D1A78FB1D01321A70B2
:102C4000FB1D1B78172BEFD9254B1B78002B39D098
:102C5000244B1B88042B2FD93C1D234B0521180026
:102C6000FFF716FD030023801F4B5B791B021AB28E
:102C70001D4B9B791BB213431AB2BB1C1A803A1D21
:102C8000BB1C12881B889A4216D1174B1B78A12BAC
:102C900012D1154B5A78154B1A70134B9A78144B66
:102CA0001A70114BDA78134B1A700F4B1A79124BBA
:102CB0001A70064B01221A700A4B00221A80084B28
:102CC00000221A70C046BD4603B090BD40020020ED
:102CD0008402002074080020B0020020D6060020E4
:102CE00041020020A402002044020020D40600205B
:102CF000DB060020D9060020DA06002080B584B06B
:102D000000AF0200FB1D1A701D4B1A880E217B18A4
:102D100001321A807B187A1812881F210A401A8003
:102D200002E00120FDF7E0FA164B1B880E203A184E
:102D300012889A42F5D0124B1B881900124BFA1DCB
:102D400012785A540E4B3A1812881A800F4B1B787F
:102D5000002B10D00D4B00221A70802359019023B4
:102D6000DB0501221800FEF770FB094B1A68084BBF
:102D700080210A431A60C046BD4604B080BDC046EB
:102D8000A8020020A6020020640200200500002006
:102D90000038014080B586B000AF464BDB697B61EF
:102DA000444B1B683B61434B9B68FB607B690F2274
:102DB0001340BB60BB68002B00D073E07B6920220E
:102DC000134023D03B69202213401FD0394B9B8CEA
:102DD0009AB2FB1D1A70384B1B7801225340DBB2AC
:102DE000002B13D0354B1A8880239B009A420DD2BA
:102DF000324B1B885A1C91B2304A11801900304B5B
:102E0000FA1D12785A542F4B02221A807B698022B5
:102E1000134031D03B69802213402DD02A4B1A88B1
:102E20002A4B1B889A4218D0274B1B881A00284B24
:102E30009A5C204B92B21A85234B1B8801339AB2BD
:102E4000214B1A80204B1B88DB05DB0D9AB21E4BF1
:102E50001A80204B00221A700EE01E4B01221A70BD
:102E6000144B1A68134B80218A431A60114B1A685D
:102E7000104B40210A431A607B694022134015D051
:102E80003B694022134011D09023DB050022022130
:102E90001800FEF7DAFA074B1A68064B40218A43FE
:102EA0001A6003E00C4B1B680F221A62C046BD4635
:102EB00006B080BD00440040AE020020B0060020F5
:102EC000B0020020B6060020B2060020B4060020A2
:102ED000B004002006000020EC07002090B583B06D
:102EE00000AF794B1B7801225340DBB2002B07D097
:102EF000764B1B7801225340DBB2002B00D0DEE082
:102F0000714B00221A70714B00221A70704B1B78A3
:102F1000002B04D16F4B1B88102B00D891E06D4B18
:102F20001B88112B00D085E06B4B1B78502B00D0F9
:102F300080E0694BDB781B021AB2674B1B791BB22E
:102F400013431BB29AB2654B1A80634B5B791B0229
:102F50001AB2614B9B791BB213431BB29AB25F4BFF
:102F60005A805D4BDB791B021AB25B4B1B7A1BB29A
:102F700013431BB29AB2594B9A80574B5B7A1B0290
:102F80001AB2554B9B7A1BB213431BB29AB2534BE6
:102F9000DA80514BDB7A1B021AB24F4B1B7B1BB200
:102FA00013431BB29AB24D4B1A814B4B5B7B1B02F6
:102FB0001AB2494B9B7B1BB213431BB29AB2474BCD
:102FC0005A81474B32221A80464B50221A70454B89
:102FD00003225A70434B00229A70424B3422DA701B
:102FE000404B00221A713F4B06225A71BC1C3D4BCC
:102FF00006211800FFF782FB03002380BB1C1B88FF
:10300000DAB2384B9A71BB1C1B881B0A9BB2DAB22E
:10301000344BDA7100237B6009E0324A7B68D318B5
:103020001B78180000F062F87B6801337B607B68D6
:10303000072BF2D9274B00221A80254B00221A7049
:103040003EE0274B1B88002B3AD1274B00221A80E9
:10305000244B50221A70234B03225A70214B00221A
:103060009A70204B3422DA701E4B00221A711D4BCD
:1030700006225A71BC1C1B4B06211800FFF73EFBB1
:1030800003002380BB1C1B88DAB2164B9A71BB1C51
:103090001B881B0A9BB2DAB2124BDA7100237B60E9
:1030A00009E0104A7B68D3181B78180000F01EF85E
:1030B0007B6801337B607B68072BF2D900E0C04658
:1030C000BD4603B090BDC046AC020020AD0200205A
:1030D000AE020020B0060020B0020020C40600208E
:1030E000D2060020B8060020D006002080B584B0AB
:1030F00000AF0200FB1D1A701C4B1A880E217B18B2
:1031000001321A807B187A181288D205D20D1A80E3
:1031100002E00120FDF7E8F8154B1B880E203A1855
:1031200012889A42F5D0114B1B881900114BFA1DD9
:1031300012785A540D4B3A1812881A800E4B1B788D
:10314000002B0FD00C4B00221A709023DB050122BC
:1031500002211800FEF779F9084B1A68074B802105
:103160000A431A60C046BD4604B080BDB4060020C4
:10317000B2060020B00400200600002000440040F9
:1031800080B500AF224B1B78FF2B3BD1214B082190
:103190001800FEF73DF903001A001F4B1B789A42F6
:1031A00028D01E4B1A681E4B1B68D21A1D4B1B6879
:1031B0009A421BD3174B08211800FEF729F9030088
:1031C0001A00154B1A70134B08211800FEF720F94E
:1031D000031E0BD0144B00229B5E002B03D0124B1E
:1031E00000221A8002E0104B01221A800B4B1A6851
:1031F0000B4B1A600D4B1B78002B06D00A4B00229C
:103200001A8002E0084B00221A80C046BD4680BDED
:10321000D406002000040048D80600203C0200200C
:10322000DC06002008000020D6060020DB06002077
:1032300080B500AF144B1B78002B07D080231B01F7
:10324000124801221900FEF700F906E080231B0155
:103250000E4800221900FEF7F8F80D4B1B78002BE2
:1032600007D08023DB00094801221900FEF7EDF8A2
:1032700006E08023DB00054800221900FEF7E5F890
:10328000C046BD4680BDC046D906002000080048A3
:10329000DA06002080B500AFFCF7C2FF00F015F899
:1032A00000F0C4F900F0A4F900F076F800F030F96D
:1032B00000F066F9FFF71EFBFFF710FCFFF70EFEAC
:1032C000FFF75EFFFFF7B4FFF4E790B595B000AFEE
:1032D00020243B19180030231A00002100F07AFC4A
:1032E0001023FB18180010231A00002100F072FCB4
:1032F0003B00180010231A00002100F06BFC210095
:103300007B1812221A607B180122DA607B180122D6
:103310005A617B1810221A617B1810229A617B185F
:1033200002221A627B1800225A627B18A0229203A2
:103330009A627B180022DA627B181800FEF7A2F866
:10334000031E01D000F04CFA10217B1807221A60EE
:103350007B1802225A607B1800229A607B18002298
:10336000DA607B1801211800FEF7A6FB031E01D0CE
:1033700000F036FA3B0001221A603B0003229A60FB
:103380003B001800FEF7DCFC031E01D000F028FA19
:10339000C046BD4615B090BD80B584B000AF3B1DA2
:1033A00018000C231A00002100F014FC554B564A5B
:1033B0001A60544B00225A60524B00229A60514BC3
:1033C0000022DA604F4B01221A614E4B04225A61EF
:1033D0004C4B00221A764B4B00225A76494B012265
:1033E0009A76484B0022DA76464BC222FF32DA61E7
:1033F000444B00221A62434B242201219954414B31
:1034000001229A623F4B1800FCF792FF031E01D085
:1034100000F0E6F93B1D06221A603B1D8022520196
:103420005A603B1D07229A603A1D364B1100180066
:10343000FDF758F9031E01D000F0D2F93B1D072219
:103440001A603A1D2F4B11001800FDF74BF9031EAF
:1034500001D000F0C5F93B1D08221A603A1D294B26
:1034600011001800FDF73EF9031E01D000F0B8F975
:103470003B1D09221A603A1D224B11001800FDF76E
:1034800031F9031E01D000F0ABF93B1D0A221A608E
:103490003A1D1C4B11001800FDF724F9031E01D042
:1034A00000F09EF93B1D0E221A603A1D154B1100CB
:1034B0001800FDF717F9031E01D000F091F93B1D2C
:1034C0000F221A603A1D0F4B11001800FDF70AF980
:1034D000031E01D000F084F90A4B1800FDF70AFB27
:1034E000C046084B1800FDF7F3F90300012BF8D193
:1034F0000649044B07221800FDF75AF8C046BD469E
:1035000004B080BDE00600200024014074080020C3
:1035100080B500AF184B194A1A60174BE1225202CE
:103520005A60154B00229A60134B0022DA60124B4E
:1035300000221A61104B0C225A610F4B00229A6133
:103540000D4B0022DA610C4B00221A620A4B00225A
:103550005A620948002300220021FFF729F8031EC0
:1035600001D000F03DF9054B1A68044B20210A43B5
:103570001A60C046BD4680BD640700200038014087
:1035800080B500AF184B194A1A60174BE12252025E
:103590005A60154B00229A60134B0022DA60124BDE
:1035A00000221A61104B0C225A610F4B00229A61C3
:1035B0000D4B0022DA610C4B00221A620A4B0022EA
:1035C0005A620948002300220021FEF7F1FF031E82
:1035D00001D000F005F9054B1A68044B20210A437D
:1035E0001A60C046BD4680BDEC0700200044004084
:1035F00080B582B000AF0C4B5A690B4B01210A43D6
:103600005A61094B5B69012213407B607B68002291
:1036100000210920FDF7C2FB0920FDF7D4FBC046BD
:10362000BD4602B080BDC0460010024090B58BB0D0
:1036300000AF14243B19180014231A00002100F0D5
:10364000C9FA634B5A69624B802109030A435A61E4
:103650005F4B5A6980231B0313403B613B695C4B02
:103660005A695B4B8021C9030A435A61584B5A6916
:103670008023DB031340FB60FB68554B5A69544BB6
:10368000802189020A435A61514B5A6980239B0267
:103690001340BB60BB684E4B5A694D4B8021C90239
:1036A0000A435A614A4B5A698023DB0213407B600C
:1036B0007B68474B5A69464B802149030A435A614C
:1036C000434B5A6980235B0313403B603B68802374
:1036D00019029023DB0500221800FDF7B6FEC02377
:1036E0001B013C4800221900FDF7AFFE3B19802268
:1036F00092011A603B19882252035A603B1900223A
:103700009A603B19334A19001000FDF711FD2100A2
:103710003B19802212021A600C003B1901225A60E8
:103720003B1900229A603B190022DA603A19902373
:10373000DB0511001800FDF7FBFC21007B18C022FF
:1037400012011A600C003B1901225A603B19002239
:103750009A603B190022DA603B191E4A19001000DA
:10376000FDF7E6FC21007B18802252011A600C0054
:103770003B1900225A603B1900229A603B19154AF6
:1037800019001000FDF7D4FC3B1904221A603B1904
:1037900000225A603B1900229A603B190E4A190018
:1037A0001000FDF7C5FC21007B1808221A607B1869
:1037B00000225A607B1800229A607B18074A190081
:1037C0001000FDF7B5FCC046BD460BB090BDC0462D
:1037D0000010024000080048000C004800040048A7
:1037E00080B500AF72B6C046FEE7000080B582B07B
:1037F00000AF0F4B9A690E4B01210A439A610C4BA3
:103800009B69012213407B607B68094BDA69084B96
:10381000802149050A43DA61054BDA6980235B059B
:1038200013403B603B68C046BD4602B080BDC04609
:103830000010024090B58DB000AF78601C243B1999
:10384000180014231A00002100F0C4F97B681B68DB
:103850004A4A934200D08DE0494B9A69484B8021F7
:1038600089000A439A61464B9A6980239B00134062
:10387000BB61BB69424B5A69414B802109030A4332
:103880005A613F4B5A6980231B0313407B617B695C
:103890003B4B5A693A4B802189020A435A61384BA3
:1038A0005A6980239B0213403B613B69344B5A6940
:1038B000334B8021C9020A435A61314B5A69802334
:1038C000DB021340FB60FB683B1931221A603B1995
:1038D00003225A603B1900229A603B19294A1900B9
:1038E0001000FDF725FC3B19C0221A603B1903228A
:1038F0005A603B1900229A603A199023DB051100A7
:103900001800FDF715FC3B1903221A603B1903222E
:103910005A603B1900229A603B191B4A190010009B
:10392000FDF706FC194B1A4A1A60184B00225A6020
:10393000164B00229A60154B8022DA60134B8022CE
:1039400052001A61114B8022D2005A610F4B202283
:103950009A610E4B0022DA610C4B1800FDF750FA09
:10396000031E01D0FFF73CFF7B68084A1A63074B30
:103970007A685A62C046BD460DB090BD0024014031
:103980000010024000080048000400482007002002
:103990000800024090B58DB000AF78601C243B1940
:1039A000180014231A00002100F014F97B681B682A
:1039B000414A93423CD1414B9A69404B8021C90115
:1039C0000A439A613D4B9A698023DB011340BB6136
:1039D000BB693A4B5A69394B802189020A435A61C3
:1039E000364B5A6980239B0213407B617B693B19EC
:1039F000B02252011A6021007B1802225A607B1803
:103A000000229A607B180322DA607B1801221A6177
:103A10007A189023DB0511001800FDF789FB0022BE
:103A200000211B20FDF7BAF91B20FDF7CCF93FE080
:103A30007B681B68224A93423AD1204BDA691F4BBC
:103A4000802189020A43DA611C4BDA6980239B02D8
:103A500013403B613B69194B5A69184B802189021D
:103A60000A435A61154B5A6980239B021340FB603D
:103A7000FB681C217B180E221A607B1802225A60F8
:103A80007B1800229A607B180322DA607B180122DF
:103A90001A617A189023DB0511001800FDF748FB26
:103AA000002200211C20FDF779F91C20FDF78BF97D
:103AB000C046BD460DB090BD003801400010024028
:103AC0000044004080B500AFFEE780B500AFFEE7E0
:103AD00080B500AFC046BD4680BD80B500AFC046D2
:103AE000BD4680BD80B500AFFCF7E2FBFEF7A8FE47
:103AF000C046BD4680BD000080B500AF034B180036
:103B0000FDF72CFAC046BD4680BDC0462007002008
:103B100080B500AFFEF73CFFC046BD4680BD80B516
:103B200000AFFFF737F9C046BD4680BD80B500AF96
:103B3000C046BD4680BD00000D488546FFF7F6FF34
:103B40000C480D490D4A002302E0D458C4500433F8
:103B5000C4188C42F9D30A4A0A4C002301E01360CE
:103B60000432A242FBD300F011F8FFF793FBFEE70B
:103B70000020002000000020100000203C3E000833
:103B80001000002084080020FEE7000070B5002629
:103B90000C4D0D4C641BA410A64209D1002600F068
:103BA00021F80A4D0A4C641BA410A64205D170BD31
:103BB000B300EB5898470136EEE7B300EB5898474F
:103BC0000136F2E7343E0008343E0008343E000877
:103BD000383E000803008218934200D170471970E4
:103BE0000133F9E7F8B5C046F8BC08BC9E467047FB
:0C3BF000F8B5C046F8BC08BC9E46704703
:103BFC0002030405060708090A0B0C0D0E0F101022
:103C0C000102030405060708090A0B0C0D0E0F1020
:103C1C0000002110422063308440A550C660E7703C
:103C2C00088129914AA16BB18CC1ADD1CEE1EFF1E4
:103C3C003112100273325222B5529442F772D6628C
:103C4C00399318837BB35AA3BDD39CC3FFF3DEE334
:103C5C006224433420040114E664C774A4448554DC
:103C6C006AA54BB528850995EEE5CFF5ACC58DD584
:103C7C005336722611163006D776F6669556B4462C
:103C8C005BB77AA719973887DFF7FEE79DD7BCC7D4
:103C9C00C448E5588668A77840086118022823387C
:103CAC00CCC9EDD98EE9AFF9488969990AA92BB924
:103CBC00F55AD44AB77A966A711A500A333A122ACC
:103CCC00FDDBDCCBBFFB9EEB799B588B3BBB1AAB74
:103CDC00A66C877CE44CC55C222C033C600C411C1C
:103CEC00AEED8FFDECCDCDDD2AAD0BBD688D499DC4
:103CFC00977EB66ED55EF44E133E322E511E700E6C
:103D0C009FFFBEEFDDDFFCCF1BBF3AAF599F788F13
:103D1C008891A981CAB1EBA10CD12DC14EF16FE1F3
:103D2C008010A100C230E32004502540467067602B
:103D3C00B9839893FBA3DAB33DC31CD37FE35EF343
:103D4C00B1029012F322D23235421452776256727B
:103D5C00EAB5CBA5A89589856EF54FE52CD50DC593
:103D6C00E234C324A01481046674476424540544CB
:103D7C00DBA7FAB79987B8975FE77EF71DC73CD7E3
:103D8C00D326F2369106B01657667676154634561B
:103D9C004CD96DC90EF92FE9C899E9898AB9ABA933
:103DAC004458654806782768C018E1088238A3286B
:103DBC007DCB5CDB3FEB1EFBF98BD89BBBAB9ABB83
:103DCC00754A545A376A167AF10AD01AB32A923ABB
:103DDC002EFD0FED6CDD4DCDAABD8BADE89DC98DD3
:103DEC00267C076C645C454CA23C832CE01CC10C0B
:103DFC001FEF3EFF5DCF7CDF9BAFBABFD98FF89F23
:103E0C00176E367E554E745E932EB23ED10EF01E5A
:103E1C00000000000000000001020304060708096E
:083E2C00000000000102030484
:043E3400E900000899
:043E3800C1000008BD
:103E3C0004000000010101003200000000127A00B1
:0400000508003B397B
:00000001FF
